:100000000C943E000C9450000C9450000C94500042
:100010000C9450000C9450000C9450000C94500020
:100020000C9450000C9450000C9450000C94500010
:100030000C9450000C9450000C9477050C945000D4
:100040000C9450000C9450000C9450000C945000F0
:100050000C9406050C944B050C9450000C94500025
:100060000C9450000C9450000C9450000C945000D0
:100070000C9450000C9450000C94500011241FBE9E
:10008000CFEFD8E0DEBFCDBF11E0A0E0B1E001C00E
:100090001D92AF34B107E1F70E946F050C94CD05B6
:1000A0000C940000CF93DF93FC01EB019091D20000
:1000B00090930D0190930C01903E59F410920F0112
:1000C00010920A01109207011092080181E08093BA
:1000D0000B0180910F01882319F5903D41F4809127
:1000E0000A018823E9F481E080930A0119C09F3D49
:1000F00061F490910A01913099F480EE80930C01A3
:1001000010920A01909309010BC09F3C49F4809121
:100110000A01813029F480ED80930C0110920A01CC
:10012000A0910C01A03E21F080910A01882329F0C2
:1001300080910901813009F0F5C010920901809188
:100140000B01843009F48CC0853048F4823001F111
:10015000833008F077C0813009F0E2C00AC08630F1
:1001600009F49CC0863008F489C0873009F0D8C0F3
:10017000AFC0A0932901A0930501A33110F0809393
:100180000601809108018A0F8093080182E057C020
:1001900080910501815080930501A0932A01EA2FE7
:1001A000F0E0A4FD3FC023B189B149B169B190E04D
:1001B0008078907076E0959587957A95E1F730E0B4
:1001C000247030703595279535952795822B932B84
:1001D00050E04074507034E0559547953A95E1F7FA
:1001E000842B952B70E0607270707595679575958E
:1001F0006795862B972B809590958F709070E81758
:10020000F90781F081E080930F011092060180913F
:10021000CA008E7F8093CA008091CA00816080935B
:10022000CA007EC080910601882319F01092060151
:1002300058C0809108018A0F8093080183E0809361
:100240000B0170C080910501815080930501A0933E
:100250002B01809108018A0F8093080184E0EFCF81
:1002600080910501815080930501A0932C0180911C
:1002700008018A0F8093080185E0E1CF8091050194
:10028000815080930501A0932D01809108018A0F70
:1002900080930801AA23D1F086E0D1CF8091050197
:1002A00081508093050190910701E92FF0E0E75D0F
:1002B000FE4FA583809108018A0F809308019F5FFC
:1002C0009093070180912D01981760F187E0B7CFD7
:1002D00080910501815080930501882371F010926F
:1002E000050110920B0182E08093370186E0809334
:1002F000330181E0809323010EC0A093320110925C
:100300000B0180910801A81741F086E08093370126
:100310001092380181E0888305C081E0808302C0AB
:1003200010920B01DF91CF9108958091C9008260F6
:100330008093C900809104018130D9F49091020129
:10034000E92FF0E0E05FFE4FE081E03E11F48FED39
:1003500003C0E03D19F48FEC8093D2009F5F90932F
:1003600002011092040180913301981708F449C0EA
:1003700036C0882309F045C080912201813019F0F0
:100380008230C1F530C080910201E82FF0E0E05FDB
:10039000FE4FE081E03E11F0E03D71F480ED80938E
:1003A000D200809133018F5F8093330181E080938D
:1003B0000401809303010895E093D200E82FEF5FDA
:1003C000E093020180910301813029F4809133018F
:1003D000E817B8F004C0809133018E1790F482E0E2
:1003E000809322010895109222011092020110922E
:1003F00003010895109222018091C90082608093C8
:10040000C900089523B189B149B169B190E08078FC
:100410009070B6E095958795BA95E1F730E0247035
:1004200030703595279535952795282B50E04074E9
:100430005070F4E055954795FA95E1F7242B70E05C
:10044000607270707595679575956795262B2095E8
:100450002F702093340130912B013093350180911E
:1004600023018823C1F08FEF809336011092380169
:100470009091330190931001209311013093120158
:10048000809313018091370180931401109215011C
:100490001092230127C040913801842F8A5F8093F6
:1004A0003301809310012093110130931201809148
:1004B000360180931301809137018093140140939A
:1004C000150190E00BC0E92FF0E0DF01AD5CBE4FFD
:1004D00016968C91E05FFE4F86839F5F941798F38A
:1004E00090930101109237013091330120E090E0A8
:1004F00007C0E92FF0E0E05FFE4F8081280F9F5F8B
:100500009317B8F320934B0190930001E32FF0E091
:10051000E05FFE4F208380EE8093D20081E08093E5
:10052000220108958091CB008695869580FF11C0A9
:100530008091C900877F8093C9008091C90088603D
:100540008093C90010920E0191E090930F0183E017
:1005500017C08091CB0082958695877080FF1AC066
:100560008091C900877F8093C9008091C90088600D
:100570008093C90010920E0191E090930F0184E0E6
:100580008093370186E080933301909323010E948A
:10059000020208958091CB0082958F7080FF19C070
:1005A0008091C900877F8093C9008091C9008860CD
:1005B0008093C90010920E0191E090930F0185E0A5
:1005C0008093370186E080933301909323010E944A
:1005D00002020895DC01FB0180912C01813869F150
:1005E000823818F4803881F528C0803F19F0843FA4
:1005F00059F523C08093360189E080933801109229
:10060000370181E38093390185E380933A0180E3E8
:1006100080933B0188E380933C0184E380933D0118
:100620008FEF80933E0181E180933F011092400162
:1006300082E18093410181E00EC080934D0181E011
:1006400080934C01108208C01092380180933601CB
:1006500081E08093370180831C92089580912E0160
:1006600020E031E0A901481B5109CA01880F991FF8
:100670009093A5008093A40080912F01A901481BAD
:100680005109CA01880F991F9093AB008093AA006B
:1006900080913001281B3109220F331F3093A700AE
:1006A0002093A6000895F999FECF92BD81BD60BD4B
:1006B000FA9AF99A0895F999FECF92BD81BDF89AF8
:1006C00080B50895F999FECF81E090E092BD81BD9B
:1006D000F89A80B5809324018823A1F01092240118
:1006E000F999FECF81E090E092BD81BD10BCFA9AED
:1006F000F99A85EF809336011092370110923801F4
:100700000E940202089580912F01282F30E08091ED
:100710002E01843091F0853040F4823021F1833015
:1007200068F5813009F056C030C0863089F08630D7
:1007300098F1873009F04EC03AC080E091E0821B0A
:10074000930B880F991F9093A5008093A4000895A0
:1007500080E091E0821B930B880F991F9093A50076
:100760008093A40006C080E091E0821B930B880F69
:10077000991F9093AB008093AA00089580E091E0C8
:10078000821B930B880F991F1CC080E091E0821B95
:10079000930B880F991F19C080E091E0821B930B87
:1007A000880F991F9093A5008093A4000EC080E04D
:1007B00091E0821B930B880F991F9093A500809363
:1007C000A4009093AB008093AA009093A70080931D
:1007D000A600089587E080933701109238010E94A7
:1007E0000202089580914C01882309F43FC0809152
:1007F0004D01813839F0843F51F18038A9F50E94CC
:10080000830332C080912E0120E031E0A901481B12
:100810005109CA01880F991F9093A5008093A400E5
:1008200080912F01A901481B5109CA01880F991F06
:100830009093AB008093AA0080913001281B31096E
:10084000220F331F3093A7002093A6000DC0F99903
:10085000FECF81E090E092BD81BD81E080BDFA9A3B
:10086000F99AF8940C94003810924C01089585B1CF
:100870008B6385B988B18E6F88B92A9A8BB1806EE7
:100880008BB984B1806C84B9389A8AB187608AB98F
:100890005A9A599A86E997EE90938500809384003E
:1008A000109280008091810084608093810081E0BB
:1008B00080936F008091CC0080688093CC008CE0A6
:1008C0008093CD008091CA008B608093CA00809194
:1008D000C80088608093C8008091C80087608093BA
:1008E000C8008091B6008E608093B6008091B500FC
:1008F0008C608093B5008091B80080688093B800C8
:100900008091B90080688093B9008091B7008064BD
:100910008093B70080E092E09093A5008093A400BC
:100920009093B3008093B2009093A7008093A600A9
:100930009093A9008093A8009093AB008093AA00A5
:100940008091B70081608093B700789423B189B11A
:1009500049B169B190E080789070B6E0959587953F
:10096000BA95E1F730E024703070359527953595CC
:100970002795822B932B50E040745070F4E05595EE
:100980004795FA95E1F7842B952B70E060727070B3
:100990007595679575956795862B972B809590959E
:1009A0008F7090700E9771F123B189B149B169B11F
:1009B00090E08078907076E0959587957A95E1F74C
:1009C00030E0247030703595279535952795822B2A
:1009D000932B50E04074507034E0559547953A950C
:1009E000E1F7842B952B70E06072707075956795B8
:1009F00075956795862B972B809590958F70907045
:100A00000F9719F481E080934E0108951F920F9281
:100A10000FB60F9211242F933F934F935F936F93D1
:100A20007F938F939F93AF93BF93EF93FF938091A7
:100A3000C90080FF18C086E291E065E271E00E9483
:100A4000520080912601882331F086E291E065E230
:100A500071E00E94EA0280912501882321F00E9422
:100A60000202109225018091C900869580FF02C084
:100A70000E949501FF91EF91BF91AF919F918F914E
:100A80007F916F915F914F913F912F910F900FBE8A
:100A90000F901F9018951F920F920FB60F9211246E
:100AA0002F933F934F935F936F937F938F939F9376
:100AB000AF93BF93EF93FF930E949202FF91EF9148
:100AC000BF91AF919F918F917F916F915F914F9166
:100AD0003F912F910F900FBE0F901F9018950E947D
:100AE00037040E946203A8950E94F203FCCF1F9274
:100AF0000F920FB60F9211248F939F9386E997EE72
:100B0000909385008093840080912701813021F4A7
:100B10005A981092270104C05A9A81E080932701C5
:100B200080914E01882391F1809128018F5F8093FD
:100B30002801813029F41092A5001092A40026C04B
:100B40008A3059F480E092E09093A5008093A4004D
:100B50001092AB001092AA0019C0843159F480E0C1
:100B600092E09093AB008093AA001092A70010929D
:100B7000A6000CC08E3151F480E092E09093A70063
:100B80008093A6001092280110924E019F918F91A0
:0E0B90000F900FBE0F901F901895F894FFCF96
:00000001FF
