:100000000C944C000C9469000C9469000C946900E9
:100010000C9469000C9469000C9469000C947607A8
:100020000C9469000C9469000C9469000C946900AC
:100030000C9469000C9469000C945A070C946900A4
:100040000C9469000C9469000C94C9060C94690026
:100050000C9469000C9469000C9469000C9469007C
:100060000C9469000C946900544E33324D5345434F
:100070003030335320482F5720566572332E3000CE
:10008000544E33324D5345433030335320462F576F
:1000900020566572312E320011241FBECFEFD4E0FE
:1000A000DEBFCDBF11E0A0E0B1E0ECEDF3E102C0B6
:1000B00005900D92A030B107D9F713E0A0E0B1E0B0
:1000C00001C01D92AE33B107E1F70E9430090C94D4
:1000D000ED090C949207289880E29EE4FC01319788
:1000E000F1F7289A0197F1F708951092B100109254
:1000F000B20090910D01977F90930D0180930B01B9
:10010000882319F084E08093B10008958EBD0DB46A
:1001100007FEFDCF8EB599270895FC0107C08081A9
:100120008EBD0DB407FEFDCF8EB581936150B8F73B
:10013000089580910D01806280930D010895809152
:100140000D018F7D80930D010895282F10920E02CE
:1001500010920F028FEF80931002822F8F5F809397
:10016000110281958093120284ED8093130294ED25
:10017000E4E1F2E003C08191980F21502223D9F7E6
:1001800091959083118208951F93982F142F809139
:100190000D0185FD0EC02A989EBD0DB407FEFDCF52
:1001A0008EB58EE092E00E948D002A9A812F0E94E7
:1001B00075001F9108952A9880ED97E00197F1F757
:1001C00082E08EBD0DB407FEFDCF8EB51EBC0DB412
:1001D00007FEFDCF2EB53327822FE0EDF7E03197F4
:1001E000F1F72A9A20932F039927089518C00E94A7
:1001F000DB0080FF06C01092B10010920B0181E07D
:1002000013C080910D0183FF06C080910D018062B3
:1002100080930D0108C088EE93E00197F1F780917B
:100220000D0185FFE4CF80E0992708950E94F60034
:1002300040E066E083E00E94C40080910E028823C3
:10024000D9F480910F028823B9F4809110028F3F76
:1002500099F480911102882379F4809112028F3FE2
:1002600059F480911302882339F480910D0185FDA2
:1002700003C081E090E0089580910D018062809339
:100280000D0180E090E008951F9380910D0185FF9E
:1002900002C010E034C02A9883E08EBD0DB407FE82
:1002A000FDCF8EB565E08EE092E00E948D008091DA
:1002B0000E028823A1F480910F02882381F480919B
:1002C00010028F3F61F41091110220E031E0211BF8
:1002D00031098091120299272817390739F0809146
:1002E0000D01806280930D0110E008C0112331F0F0
:1002F000612F6E5F8EE092E00E948D002A9A812F1E
:1003000099271F910895CF93DF932A98C0E2DEE4E6
:10031000CE010197F1F7CE010197F1F784E18093C7
:10032000140281E08093150282E00E94A50044E659
:100330006AE081E00E94C4000E941601882329F42B
:1003400080910D01806280930D010E94F6000E9451
:10035000440180910F02853129F080910D01806266
:1003600080930D012197F1F782E38093140282E0DC
:1003700080931502109216028BE0809317028CE096
:100380008093180285E00E94A50080910D018F7D69
:1003900080930D0144E66DE081E00E94C4000E945C
:1003A00016018AEF0E9475000E94F6000E94440127
:1003B000DF91CF91089587EE85B98DE284B988E306
:1003C00088B988EF87B98EEF8BB922E02AB981E727
:1003D0008CBD81E88DBD1092C00088E98093C1007A
:1003E00086E08093C2008CE090E09093C5008093FB
:1003F000C40024BD15BCA99A20936E008DE787BD6B
:100400002093B0001092B100B99A209370008093AD
:10041000B3000E946B0078940E948301089586B116
:1004200080958770809339030895AC0120E030E017
:1004300015C0822F9927DA01A80FB91FE32FFF27D4
:1004400074E0EE0FFF1F7A95E1F7E25FFC4FE80FD3
:10045000F91F9C918081981719F42F5F261748F394
:10046000832F8F5F261711F499270895382F823034
:1004700010F420E0F3CF80E090E0089568E00E945F
:1004800015029927089564E00E941502992708959E
:100490008091360390913903890F20910C0190913E
:1004A0003B03290F30910301830F280F90E007C011
:1004B000E92FFF27E25FFE4F8081280F9F5F931790
:1004C000B9F790E080910201281391E081E098272C
:1004D000892F9927089541E090E0282F33272F5F37
:1004E0003F4F05C0E25FFE4F8081980F4F5FE42FC2
:1004F000FF27E217F307B4F3892F99270895982F60
:100500008091C00085FFFCCF9093C6000895909124
:100510000F0120910E018091C00085FFFCCF392F83
:100520003F5F2093C600EFE0F1E0292F2095290FCF
:1005300040ED17C09191903E11F0903D61F4809193
:10054000C00085FFFCCF4093C6008091C00085FFAE
:10055000FCCF915004C08091C00085FFFCCF9093E8
:10056000C6003150321731F7089580EE80930E01A6
:10057000809139038093100180913B038093110196
:1005800080910C0180931201089590EE90930E01DA
:10059000909139039093100190913B039093110136
:1005A00090910C019093120196E090930F0180932B
:1005B00013011092140186E00E946B0280931501D2
:1005C0000E948702089580910D018A7F80930D011A
:1005D00010923D0315BC10923C030895CF93DF9316
:1005E00010922E0340E050E0C7E3D3E0A0E0B1E07A
:1005F0009FEF20E030E018821C92F901E25FFC4F8F
:1006000080E091938F5F8031E1F74F5F5F4F205F14
:100610003F4F219611964230510569F7DF91CF91F6
:1006200008951F9380E68093140281E08093150261
:100630008093160280913A03282F332721FD02C0B0
:1006400010E004C081E18093170211E020FF07C091
:10065000E12FFF27E25FFD4F80E181871F5F812F40
:100660008D5F0E94A50080910D018F7D80930D010B
:10067000155F44E6612F81E00E94C4000E941601CC
:1006800099271F910895FF920F931F93CF93DF93A4
:100690000E94EE0280910E02853D09F053C08091C8
:1006A0000F02813609F04EC08091100280932E0314
:1006B000833018F082E080932E0310912E0370E0B7
:1006C000C1E1D2E0F0E1FF2E00E239C0272F33274D
:1006D0009881D901A95CBC4F9C93913149F4F901EF
:1006E000E050FF4FF0820C93AE014B5F5F4F0DC0A7
:1006F000903169F58E81F901E050FF4F8083AE01A2
:10070000495F5F4F813108F09083F901E050FF4F5E
:100710006081DA0190E0E4E0220F331FEA95E1F70F
:10072000225F3C4F06C0F901E90FF11D8D918083D6
:100730009F5F9617C1F7EA01C60FD11D7F5F711742
:1007400029F605C080910D01806280930D01DF9133
:10075000CF911F910F91FF90089580910D0185FD1C
:100760000FC080910D0184FF0BC08AEF0E947500BD
:100770000E94F6001092B10010920B010E944401F9
:1007800080910D018F7E80930D01089590910D0150
:100790009F7D90930D0192E39093140291E09093CA
:1007A0001502882319F09093160202C010921602C7
:1007B00083E00E94A50080910D018F7D80930D0143
:1007C00044E66BE081E00E94C4000E9416018AEFBB
:1007D0000E9475000E94F6000E94440108950E9444
:1007E000EE0280910D0184FF02C082E01BC0809167
:1007F0000E01882311F484E015C080933A038091A0
:100800000D018F7D80930D010E94110380910D01D8
:1008100085FF02C086E006C080910D018061809353
:100820000D0180E00E94C502089580910D018F7D29
:1008300080930D010E94AD0380910D0185FF02C0E0
:1008400086E004C080E00E94C60380E00E94C502EA
:1008500008951F93CF93DF9380910D0184FD02C013
:1008600082E005C080910D0185FF04C086E00E94F2
:10087000C50259C080EE80930E01809139038093A8
:10088000100180913B038093110180910C018093B2
:1008900012011092130110912E031093150170E0B4
:1008A00091E030C0272F3327C25FDE4FF901E95CAA
:1008B000FC4F80818F83892F8F5FF901E050FF4FBC
:1008C0004081E82FFF27E25FFE4F4783682F6F5F6D
:1008D000962F50E0A4E0220F331FAA95E1F7225F84
:1008E0003C4F0BC0E92FFF27E25FFE4FD901A50F58
:1008F000B11D8C9187839F5F5F5F541799F7962F87
:10090000940F7F5FC92FDD27711761F69093140153
:10091000892F8A5F80930F010E946B02C25FDE4FB6
:100920008F830E948702DF91CF911F91089580915C
:100930000301863011F084E019C080910E0180938C
:10094000300380910F0180933103809110018093D7
:1009500032038091110180933303809112018093BF
:100960003403809113018093350380E00E94C50217
:10097000089580910301863011F084E019C08091C0
:100980000E018093050180910F01809306018091F3
:1009900010018093070180911101809308018091DB
:1009A0001201809309018091130180930A0180E074
:1009B0000E94C50208951F93182F80910D0184FF96
:1009C00004C00E94AD030E9443038091030185305F
:1009D00011F084E056C08EE091E00E9443028093C3
:1009E0001502882309F44AC080E48093140210930E
:1009F00016028091120180931702103659F4E0E339
:100A0000F3E0A8E1B2E081918D9383E0E633F8074B
:100A100059F0F9CFE5E0F1E0A8E1B2E081918D93E2
:100A200081E0EB30F807D1F7EEE0F1E0AEE1B2E0C3
:100A300081918D9381E0E231F807D1F78EE00E9439
:100A4000A50080910D018F7D80930D0144E666E144
:100A500081E00E94C4000E9416018AEF0E94750086
:100A60000E94F6000E94440180910D0185FF02C0A2
:100A700086E007C080911002882311F081E001C058
:100A800080E00E94C5021F91089580E60E94DB0469
:100A9000089581E60E94DB04089580910D0184FF92
:100AA00004C00E94AD030E9443038EE091E00E94C7
:100AB000430280931502882351F180E4809314024D
:100AC00080E380931602809112018093170284E0E4
:100AD0000E94A50080910D018F7D80930D0144E659
:100AE0006CE081E00E94C4000E9416018AEF0E941F
:100AF00075000E94F6000E94440180910D0185FF5F
:100B000002C086E005C080911002882321F081E0B8
:100B10000E94C502089580EE80930E0180913903F2
:100B20008093100180913B038093110180910C010F
:100B3000809312011092130180E180931401E1E18E
:100B4000F2E0A5E1B1E081918D9382E0E132F80716
:100B5000D1F786E180930F010E946B0280932501FB
:100B60000E948702089580910D0184FF04C00E94B5
:100B7000AD030E9443038EE091E00E944302809304
:100B800015028823A1F180E48093140280EA809307
:100B900016028091120180931702E3E1F1E0A8E1CF
:100BA000B2E081918D9381E0E332F807D1F784E1DF
:100BB0000E94A50080910D018F7D80930D0144E678
:100BC0006CE181E00E94C4000E9416018AEF0E943D
:100BD00075000E94F6000E94440180910D0185FF7E
:100BE00002C086E007C080911002882311F081E0E6
:100BF00001C080E00E94C502089580910D0184FF2C
:100C000004C00E94AD030E9443038EE091E00E9465
:100C1000430280931502882369F184E580931402CE
:100C2000EEE0F1E0A6E1B2E081918D9381E0E23166
:100C3000F807D1F786E00E94A50080910D018F7D15
:100C400080930D0144E66EE081E00E94C4000E94A2
:100C500016018AEF0E9475000E94F6000E9444016E
:100C600080910D0185FF02C086E007C080911002CF
:100C7000882311F081E001C080E00E94C502089540
:100C800080910D0184FF04C00E94AD030E944303C4
:100C90008EE091E00E94430280931502882369F15F
:100CA00084E480931402EEE0F1E0A6E1B2E08191E9
:100CB0008D9381E0E231F807D1F786E00E94A5002C
:100CC00080910D018F7D80930D0144E66EE081E0FF
:100CD0000E94C4000E9416018AEF0E9475000E94C3
:100CE000F6000E94440180910D0185FF02C086E05C
:100CF00007C080911002882311F081E001C080E0DC
:100D00000E94C502089580910D018F7D80930D0191
:100D100082E3809314022091030190E00AC0E92F3E
:100D2000FF27DF01A25FBE4F8C91E25FFD4F8783FB
:100D30009F5F9217A1F7822F8F5F0E94A50080917D
:100D40000D018F7D80930D0160910301675F44E683
:100D500081E00E94C4000E9416018AEF0E94750083
:100D60000E94F6000E94440180910D0185FF02C09F
:100D700086E001C080E00E94C502089580E00E94E4
:100D8000C5028091C00086FFFCCFF8940C94000E41
:100D900008951F920F920FB60F9211242F938F93E5
:100DA0009F93EF93FF932091C60090913D03992369
:100DB00031F180910D0180FF07C02F5F80910D01FF
:100DC0008E7F80930D0108C0203D31F480910D018C
:100DD000816080930D015FC0933039F1943028F425
:100DE000913091F09230B0F40AC0953051F19530C5
:100DF00010F1963091F1973009F049C03EC0203E85
:100E000009F049C081E00EC082E080933D03209349
:100E1000360341C080913903281719F010923D0321
:100E20003AC083E080933D0336C084E080933D0365
:100E300020933B0330C085E080933D0320930C0159
:100E40002AC020930301222311F086E001C087E02D
:100E500080933D03109204011AC080910401E82F91
:100E6000FF27E25FFE4F20838F5F80930401909104
:100E70000301981781F487E0D5CF88E080933D0384
:100E80002093020115BC16BC10923C0309C080914E
:100E90003D03883029F083E085BD8AE080933C03E0
:100EA000FF91EF919F918F912F910F900FBE0F9017
:100EB0001F9018951F920F920FB60F9211248F93C7
:100EC00080913C03882361F0815080933C03882308
:100ED00039F415BC16BC80910D01846080930D011E
:100EE0008F910F900FBE0F901F9018951F920F9229
:100EF0000FB60F9211248F9380910B01882361F01C
:100F0000815080930B01882339F41092B1008091B5
:100F10000D01886080930D018F910F900FBE0F908F
:100F20001F9018951F920F920FB60F9211240F90D9
:100F30000FBE0F901F9018951F93CF93DF93809152
:100F40000D0184FF04C00E94AD030E94430380E4AE
:100F5000809314028EE091E00E943E02809315027D
:100F60008823C1F14091030155274850504066E164
:100F700071E086E192E00E94E409809103018650CD
:100F80000E94A50080910D018F7D80930D016091DD
:100F900003016E5F44E681E00E94C4000E941601D6
:100FA0008AEF0E9475000E94F6000E944401182FEB
:100FB00080910D0185FF04C086E00E94C50240C0FB
:100FC00080911002882331F48EE091E00E943E026D
:100FD000882311F481E0F1CF80EE80930E0180919F
:100FE00039038093100180913B038093110180911C
:100FF0000C018093120110921301135010931401ED
:1010000020E030E009C0FF27DF01A25FBD4FED0106
:101010008B81E25FFE4F8783E22F109114012F5FD7
:101020003F4FE11780F3812F8A5F80930F010E9469
:101030006B02E12FFF27E25FFE4F87830E9487024A
:10104000DF91CF911F9108950F931F9380910D0110
:1010500084FF04C00E94AD030E944303109103016A
:1010600080E4809314028EE091E00E943E0280931F
:101070001502882309F47AC0012F08501D5F1093D0
:10108000160280EB80931702A8E1B2E0EEE0F1E0F7
:1010900088E001900D928150E1F700932002402FEB
:1010A000552766E171E081E292E00E94E409802F19
:1010B000835F0E94A50080910D018F7D80930D01BB
:1010C0000B5E44E6602F81E00E94C4000E9416017E
:1010D0008AEF0E9475000E94F6000E9444018091F0
:1010E0000D0185FD37C080911002882309F03EC0B4
:1010F00083E192E00E943E028823C1F180E4809364
:10110000140281E0809315028BE08093160284EA3A
:1011100080931702A8E1B2E0EEE0F1E088E00190F0
:101120000D928150E1F7109220028DE00E94A500FF
:1011300044E665E181E00E94C4000E9416018AEF46
:101140000E9475000E94F6000E94440180910D01EA
:1011500085FF02C086E00DC080911002882331F423
:1011600083E192E00E943E02882311F481E001C0F5
:1011700080E00E94C5021F910F910895DF92EF92C7
:10118000FF920F931F93B8E6EB2EB0E0FB2EC70142
:101190000E94DB09D82E0EE011E020EE20930E0114
:1011A000209139032093100120913B0320931101DA
:1011B00020910C01209312011092130180931401CD
:1011C000B701C80107960E94D4098D2D8A5F8093CC
:1011D0000F010E946B020D0D111DF80187830E9403
:1011E00087021F910F91FF90EF90DF900895DF929B
:1011F000EF92FF920F931F9310E8E12E10E0F12E73
:10120000C7010E94DB09D82E0EE011E020EE2093EA
:101210000E01209139032093100120913B0320936C
:10122000110120910C01209312011092130180935F
:101230001401B701C80107960E94D4098D2D8A5F59
:1012400080930F010E946B020D0D111DF801878321
:101250000E9487021F910F91FF90EF90DF900895F9
:101260000E94DB0186B1809587708093390380915D
:101270000D0182FF06C080913D03883011F00E946D
:10128000E30280910D0184FF15C00E94DB0080FF06
:1012900011C00E9444010E94430388EC90E0019732
:1012A000F1F70E941103882329F480910D018860D1
:1012B00080930D0180913D038830C9F60E94480259
:1012C000882309F46BC080910C01803509F440C07B
:1012D0008135D0F48134C9F1823470F4803349F11E
:1012E000813320F4803209F057C04AC0823321F1A3
:1012F000803409F051C023C08334E1F1833410F10C
:10130000843409F049C039C0843529F1853528F481
:10131000823551F1833558F521C08037B9F18137D5
:1013200028F48535F1F08036B9F52DC08137A1F567
:1013300030C00E94F70835C00E94BE0832C00E942B
:10134000EF032FC00E9429042CC00E94150429C05D
:101350000E94970426C00E94B90423C00E9445053C
:1013600020C00E9449051DC00E944D051AC00E9460
:10137000B30517C00E94FD0514C00E94400611C0AD
:101380000E9483060EC00E94BE060BC00E94240865
:1013900008C00E949C0705C083E001C085E00E9450
:1013A000C5020E94E30263CFFB01DC0105900D92B0
:1013B0000020E1F70895FC0105900020E9F78095F1
:1013C00090958E0F9F1F0895FB01DC0102C00190D4
:0C13D0000D9241505040D8F70895FFCF17
:00000001FF
